{
  "_format": "hh-sol-artifact-1",
  "contractName": "Authentication",
  "sourceName": "contracts/Authentication.sol",
  "abi": [
    {
      "inputs": [],
      "stateMutability": "nonpayable",
      "type": "constructor"
    },
    {
      "inputs": [],
      "name": "getSignatureHash",
      "outputs": [
        {
          "internalType": "string",
          "name": "",
          "type": "string"
        }
      ],
      "stateMutability": "view",
      "type": "function"
    },
    {
      "inputs": [],
      "name": "getUserAddress",
      "outputs": [
        {
          "internalType": "address",
          "name": "",
          "type": "address"
        }
      ],
      "stateMutability": "view",
      "type": "function"
    },
    {
      "inputs": [],
      "name": "nbOfUsers",
      "outputs": [
        {
          "internalType": "uint256",
          "name": "",
          "type": "uint256"
        }
      ],
      "stateMutability": "view",
      "type": "function"
    },
    {
      "inputs": [
        {
          "internalType": "string",
          "name": "_signature",
          "type": "string"
        }
      ],
      "name": "register",
      "outputs": [],
      "stateMutability": "nonpayable",
      "type": "function"
    }
  ],
  "bytecode": "0x608060405234801561001057600080fd5b50600080819055506109df806100276000396000f3fe608060405234801561001057600080fd5b506004361061004c5760003560e01c80631267932314610051578063c127ae411461006f578063ebc3eee81461008d578063f2c298be146100ab575b600080fd5b6100596100c7565b6040516100669190610702565b60405180910390f35b6100776100cd565b60405161008491906106a0565b60405180910390f35b61009561026f565b6040516100a29190610685565b60405180910390f35b6100c560048036038101906100c091906105a7565b6102d9565b005b60005481565b6060600160003373ffffffffffffffffffffffffffffffffffffffff1673ffffffffffffffffffffffffffffffffffffffff16815260200190815260200160002060010160009054906101000a900473ffffffffffffffffffffffffffffffffffffffff1673ffffffffffffffffffffffffffffffffffffffff163373ffffffffffffffffffffffffffffffffffffffff161461019f576040517f08c379a0000000000000000000000000000000000000000000000000000000008152600401610196906106e2565b60405180910390fd5b600160003373ffffffffffffffffffffffffffffffffffffffff1673ffffffffffffffffffffffffffffffffffffffff16815260200190815260200160002060000180546101ec9061080d565b80601f01602080910402602001604051908101604052809291908181526020018280546102189061080d565b80156102655780601f1061023a57610100808354040283529160200191610265565b820191906000526020600020905b81548152906001019060200180831161024857829003601f168201915b5050505050905090565b6000600160003373ffffffffffffffffffffffffffffffffffffffff1673ffffffffffffffffffffffffffffffffffffffff16815260200190815260200160002060010160009054906101000a900473ffffffffffffffffffffffffffffffffffffffff16905090565b600073ffffffffffffffffffffffffffffffffffffffff16600160003373ffffffffffffffffffffffffffffffffffffffff1673ffffffffffffffffffffffffffffffffffffffff16815260200190815260200160002060010160009054906101000a900473ffffffffffffffffffffffffffffffffffffffff1673ffffffffffffffffffffffffffffffffffffffff16146103aa576040517f08c379a00000000000000000000000000000000000000000000000000000000081526004016103a1906106c2565b60405180910390fd5b80600160003373ffffffffffffffffffffffffffffffffffffffff1673ffffffffffffffffffffffffffffffffffffffff168152602001908152602001600020600001908051906020019061040092919061049c565b5033600160003373ffffffffffffffffffffffffffffffffffffffff1673ffffffffffffffffffffffffffffffffffffffff16815260200190815260200160002060010160006101000a81548173ffffffffffffffffffffffffffffffffffffffff021916908373ffffffffffffffffffffffffffffffffffffffff16021790555060008081548092919061049490610870565b919050555050565b8280546104a89061080d565b90600052602060002090601f0160209004810192826104ca5760008555610511565b82601f106104e357805160ff1916838001178555610511565b82800160010185558215610511579182015b828111156105105782518255916020019190600101906104f5565b5b50905061051e9190610522565b5090565b5b8082111561053b576000816000905550600101610523565b5090565b600061055261054d84610742565b61071d565b90508281526020810184848401111561056a57600080fd5b6105758482856107cb565b509392505050565b600082601f83011261058e57600080fd5b813561059e84826020860161053f565b91505092915050565b6000602082840312156105b957600080fd5b600082013567ffffffffffffffff8111156105d357600080fd5b6105df8482850161057d565b91505092915050565b6105f18161078f565b82525050565b600061060282610773565b61060c818561077e565b935061061c8185602086016107da565b61062581610946565b840191505092915050565b600061063d60128361077e565b915061064882610957565b602082019050919050565b6000610660600b8361077e565b915061066b82610980565b602082019050919050565b61067f816107c1565b82525050565b600060208201905061069a60008301846105e8565b92915050565b600060208201905081810360008301526106ba81846105f7565b905092915050565b600060208201905081810360008301526106db81610630565b9050919050565b600060208201905081810360008301526106fb81610653565b9050919050565b60006020820190506107176000830184610676565b92915050565b6000610727610738565b9050610733828261083f565b919050565b6000604051905090565b600067ffffffffffffffff82111561075d5761075c610917565b5b61076682610946565b9050602081019050919050565b600081519050919050565b600082825260208201905092915050565b600061079a826107a1565b9050919050565b600073ffffffffffffffffffffffffffffffffffffffff82169050919050565b6000819050919050565b82818337600083830152505050565b60005b838110156107f85780820151818401526020810190506107dd565b83811115610807576000848401525b50505050565b6000600282049050600182168061082557607f821691505b60208210811415610839576108386108e8565b5b50919050565b61084882610946565b810181811067ffffffffffffffff8211171561086757610866610917565b5b80604052505050565b600061087b826107c1565b91507fffffffffffffffffffffffffffffffffffffffffffffffffffffffffffffffff8214156108ae576108ad6108b9565b5b600182019050919050565b7f4e487b7100000000000000000000000000000000000000000000000000000000600052601160045260246000fd5b7f4e487b7100000000000000000000000000000000000000000000000000000000600052602260045260246000fd5b7f4e487b7100000000000000000000000000000000000000000000000000000000600052604160045260246000fd5b6000601f19601f8301169050919050565b7f616c726561647920726567697374657265640000000000000000000000000000600082015250565b7f4e6f7420616c6c6f77656400000000000000000000000000000000000000000060008201525056fea2646970667358221220517417150d4ed605b2f9c0ab59f82ac34e4334345f53c7856fc706ba3cdc6adc64736f6c63430008040033",
  "linkReferences": {},
  "deployedLinkReferences": {}
}